:1000000043C05DC089C05BC05AC059C058C057C00A
:1000100056C055C054C053C052C051C050C0BFC9D3
:100020000AC858C880C8AAC8D7C8EBC809C949C9EE
:100030004AC952C969C9B1C9B0C9AFC9AEC9ADC908
:1000400099C9090219000101008064090400000136
:10005000FF00000007058103080064120110010081
:1000600000000881179F0C040100020301160355CC
:100070000053004200740069006E00790053005084
:10008000004900040309040011241FBECFE5D2E09B
:10009000DEBFCDBF10E0A0E6B0E0ECE5F4E102C0C9
:1000A00005900D92A037B107D9F721E0A0E7B0E0A5
:1000B00001C01D92A839B207E1F730D7CDC9A0CF52
:1000C000A82FB92F80E090E041E050EA609530E041
:1000D00009C02D9182279795879510F08427952741
:1000E000305EC8F36F5FA8F30895EADF8D939D93A8
:1000F0000895A6E088279927AA9569F00197E1F36A
:10010000B399FCCFB39BFECF81E09927A6B30196AC
:1001100011F0A871D9F70895CF93CFB7CF93DF939C
:10012000C395B39BE9F7B39B0BC0B39B09C0B39BCB
:1001300007C0B39B05C0B39B03C0B39B01C08BC07A
:100140006F93C0916A01DD27CF58DE4F2F9365E58D
:10015000B39B03C02F916F91E6CF0F931F934F93E3
:1001600020E040E15F9306B3087103FB27F93F935A
:1001700050E03BE039C0187140642F77012F5F5F7A
:100180001EC0406816B318712F7752501FC04064CC
:1001900006B32F770871D1F15F5F00C023C04062C2
:1001A00016B32F77187191F15F5F00C025C00871F9
:1001B0001027515012F45D5F0000115027952C3F1D
:1001C00016B3C8F618710127015027952C3FC8F6C1
:1001D0004227499306B3087110274F731150279592
:1001E0002C3FA8F64695469516B3187179F001276D
:1001F000015027952C3F98F66B5A60F3315006B3A7
:10020000B0F600C010E21ABF002719C03B5031956C
:10021000C31BD04010E21ABF0881033C09F10B3424
:10022000F9F0209168011981110F1213EDCF4A8165
:10023000441F093651F10D3211F0013E29F70093A8
:100240006F013F915F914F911F910F912F916F918E
:10025000CAB7C5FD65CFDF91CF91CFBFCF911895BC
:1002600020916F01222369F310916D01112391F503
:10027000343092F130936D012093690110916A013D
:100280003BE0311B30936A0127C000916D010130C2
:100290000CF50AE54F7049F43091610034FD1DC042
:1002A00000936100C1E5D1E01CC030915C0134FDD8
:1002B00014C000935C01CDE5D1E013C0052710E028
:1002C00000C0000008BB1AC0052710E0221F1DC097
:1002D00010E021C04AE502C032ED432FC4E1D0E076
:1002E00032E017B31861C39A08B317BB58E120E88E
:1002F00065E320FF052708BB279517951C3FF0F6FF
:100300006695B8F7B1F720FF052708BB2795179525
:100310001C3FD0F62795179517FF052700001C3FB7
:1003200008BBB0F629913A9519F7077E10916E0136
:10033000110FC651D04008BB11F01093680110E2B4
:100340001ABF086017B3177E402F477E54E05A95B6
:10035000F1F708BB17BB48BB74CFCF93DF93609115
:100360006D01635067FDB7C080916A01CCE0D0E0B9
:10037000C81BD109CF58DE4F809169018D3209F039
:1003800099C0683009F0A5C083EC809351018AE5DB
:1003900080936100109271008881807639F0CE01DF
:1003A000F0D1982F8F3F09F474C07AC09A811092CF
:1003B0005A018981811106C010925B012AE531E062
:1003C00092E062C0853019F490936E015AC0863075
:1003D00009F041C08B81813049F48BE590E0909326
:1003E0006C0180936B0180E492E132C0823049F469
:1003F00082E490E090936C0180936B0180E499E13A
:1004000027C0833019F5911109C083E890E09093DB
:100410006C0180936B0180E494E01AC09130B1F0DC
:10042000923049F48DE690E090936C0180936B01DB
:1004300080E496E10DC0933049F485E690E0909316
:100440006C0180936B0180E098E002C080E490E052
:100450008093710025C0883069F0893019F4909339
:1004600070010FC08A3049F08B3059F48BE48093CF
:100470005D0107C020E731E002C02AE531E091E0EC
:1004800003C02AE531E090E030936C0120936B01CA
:1004900007C0888187FD9E8180E88093710007C036
:1004A0008F81811104C08E81891708F4982F909351
:1004B00060000FC08091710087FF0BC0CE01F9D0A2
:1004C0008F3F21F48EE18093610003C0811110926F
:1004D000600010926D018091610084FF56C0809190
:1004E00060008F3F09F451C0C82F893008F0C8E080
:1004F0008C1B809360009091510188E8892780933C
:100500005101CC2389F12091710027FF08C06C2F85
:1005100082E591E0AFD0C82F893088F525C0809161
:100520006B0190916C0126FF0BC0A2E5B1E0FC01CC
:100530002C2F280F34913D9331962E13FBCF09C0F9
:10054000DC01E2E5F1E02C2F2E0F3D9131932E13CB
:10055000FCCF2FEF2C0F30E02F5F3F4F820F931F08
:1005600090936C0180936B016C2F82E591E0BDDD6F
:10057000CC5FCC3041F08FEF8093600004C08FEFF0
:1005800080936000CEE1C093610084E196B39871DE
:1005900031F48150D9F710926E0110926801C1E0D8
:1005A0008111C0E0809170008C1729F0C11101C049
:1005B0000ED3C0937000DF91CF910895AC9A8BB7A2
:1005C00080628BBFECE5F1E08BE481838AE5808378
:1005D0000895FC01DB01AC014C5F5F4F619128E0A5
:1005E00030E080E890E0782F762309F0C09A70918F
:1005F0006400072E00C00000000000000A94D1F73C
:10060000C29A70916400072E00C000000000000034
:100610000A94D1F7990FB1999F5FC098C2988695B7
:100620002150310901F79D93E417F507B9F60895B4
:1006300080914D0190914E019C012F5F3F4F30936F
:100640004E0120934D0120914A0127FF02C0880FDF
:10065000991F80FD286020934601292F269520931D
:100660004701969587958093480162E471E086E49E
:1006700091E0AFCFEF92FF921F93CF93DF931F9242
:10068000CDB7DEB7182F7C018E2D811B861748F45D
:100690006983CEDF80914501F70181937F016981F4
:1006A000F3CF862F0F90DF91CF911F91FF90EF90A6
:1006B0000895DF92EF92FF920F931F93CF93DF93F2
:1006C000F62EE82EEC0130E6D32E8C2F8E198F15E6
:1006D00080F5899180934901ABDF809146018D259A
:1006E0008093460100E010E080914B0190914C0115
:1006F0000817190750F762E471E086E491E069DFBA
:100700008091450190914901891308C09091500151
:10071000891721F090914F018913D7CF8091640000
:1007200090E025E0880F991F2A95E1F7080F191F1F
:10073000DBCF81E0DF91CF911F910F91FF90EF9080
:10074000DF90089528B3342F3095232338B3432BFB
:10075000680F791F8617970799F0FC013191CF0137
:1007600058E048BB330F5A9500C008F028BB00C0C2
:10077000000028BB21F000C000C000C0F2CFEACFCB
:100780000895CF93DF93EC012981211108C081E204
:100790008983D0936C01C0936B0198E014C221301F
:1007A00011F486B30CC16A81223011F468BB0AC20D
:1007B000962F362F377041E050E0032E02C0440FD1
:1007C000551F0A94E2F7233009F497C0243021F42E
:1007D00088B3482B48BBF6C1253051F460936400C0
:1007E000B99887B3856287BB88B3887D88BBEAC127
:1007F000263049F4B898C098B998C198BA98C29868
:10080000BD98C598DFC1273051F4BE01CE010296D4
:10081000E0DED0936C01C0936B0194E0D4C128302A
:1008200031F4609350018B8180934F01CBC1EC81F7
:10083000FD81F0934E01E0934D01293011F480E2E7
:1008400011C02B3011F480EA0DC0EA81FB81F093D6
:100850004C01E0934B012A3011F480E403C02C30AA
:1008600029F480EC80934A019FEFADC12D3021F433
:1008700087B34095482304C02E3021F487B3482B1A
:1008800047BBA0C12F3009F5611105C0809135012A
:1008900087B9A59A0CC0613031F48091350181602F
:1008A00087B9A29A04C0623011F48FE887B9369AEA
:1008B0003699FECF84B1888385B18983D0936C014A
:1008C000C0936B0114BA92E07EC1203159F4B89AFA
:1008D000B99A8AB5806A8ABD8AB583608ABD83B7B2
:1008E000856044C0213121F469BD8C8188BD6AC115
:1008F000223109F46DCF233121F488B34095482388
:1009000069CF243159F486B390E04823592302C0BB
:10091000559547953A95E2F7488352C02631A1F59F
:1009200061110AC083B78B7F83BF83B78D7F83BF7D
:1009300083B7816083BF47C1613031F483B78B7F58
:1009400083BF83B782600FC0623031F483B78B7F7F
:1009500083BF83B7826014C0633051F483B784606F
:1009600083BF83B78D7F83BF83B78E7F83BF2AC149
:10097000643009F027C183B7846083BF83B78D7F5C
:1009800083BF83B78160F2CF2F3159F48B8190E020
:10099000982F8827860F911D9093630080936200A3
:1009A00011C1203219F41ABC13BE0CC1213221F43A
:1009B0006093900181E07FC0223241F483E188831B
:1009C000D0936C01C0936B0191E0FDC02332C9F458
:1009D000379A96B18A81892B86B99B81913059F0DB
:1009E00038F0923009F0EEC080913501806906C080
:1009F00010923501E8C080913501806880933501FF
:100A0000E1C0283249F487E891E090936C0180932B
:100A10006B0190918F01D7C0293211F482E04BC055
:100A20002A3211F483E00BC02B3211F484E043C06E
:100A30002C3211F488E03FC02D3231F489E08093EC
:100A4000340160939001BEC02E3261F48BE080933C
:100A50003401609390018B81809391018C8180930C
:100A60009201B0C02F3259F4613031F4B89AB99A7A
:100A7000BA9A60933C01A6C010923C01A3C02033F7
:100A800049F4609338018B81809337018C81809386
:100A9000360198C0213331F470E0709341016093C6
:100AA000400190C0223311F485E005C0233331F4B6
:100AB0006093900186E08093340184C0263371F501
:100AC00065FF1BC0E0917200E03CB8F48B81AE2F53
:100AD000B0E0AC58BF4F8C938C81A1E0AE0FB0E07A
:100AE000AC58BF4F8C9383E08E0F809372008D8142
:100AF000EE5FF0E0EC58FF4F80838A8184FF62C094
:100B000080917200882309F45DC081E180933401F3
:100B100087B3842B87BB4093730054C02733A1F461
:100B200080916D0090916E0089D480916D009091BC
:100B30006E006B81019682D480916D0090916E0061
:100B40006C8102967BD43EC0822F807F803EE1F490
:100B50008AE080933401822F8770809390012870FF
:100B60002093910120E080919001281758F5822F61
:100B700090E00296FE01E80FF91F3081FC01E0577A
:100B8000FE4F30832F5FEFCF803FE1F487E080930B
:100B90003401822F887080939001277020939101F7
:100BA00020E080919101281768F4822F90E002964E
:100BB000FE01E80FF91F3081FC01E057FE4F308342
:100BC0002F5FEFCF90E0892FDF91CF910895DF92D3
:100BD000EF92FF920F931F93CF93DF9308E010E003
:100BE000C0E0D0E8DD2EDC0ED1BE83DA7C018CEED5
:100BF000E81688E0F8060CF4CD2DD69501501109C1
:100C000089F78FEF8C0F81BF0C2F10E00F5F1F4F04
:100C100021B730E0021713078CF06BDA8C5E984036
:100C200097FF03C09195819591098E159F0514F446
:100C3000C1B77C0181B78F5F81BFEACFC1BF61B708
:100C400080E090E0DF91CF911F910F91FF90EF90A6
:100C5000DF90F4C3882311F0B89801C0B89A90E0EF
:100C6000292F30E040914001509141012417350770
:100C700030F425E02A95F1F700009F5FF1CFBA9894
:100C800090E0292F30E0409140015091410124171C
:100C9000350730F425E02A95F1F700009F5FF1CF8A
:100CA000BA9A90E0292F30E04091400150914101E3
:100CB0002417350730F425E02A95F1F700009F5FEF
:100CC000F1CF8111B89A20E0822F90E0409140014D
:100CD000509141018417950730F485E08A95F1F72A
:100CE00000002F5FF1CF0895B89820E0822F90E0A8
:100CF00040914001509141018417950730F485E0FF
:100D00008A95F1F700002F5FF1CFBA9820E0822F8B
:100D100090E040914001509141018417950730F4D3
:100D200085E08A95F1F700002F5FF1CF86B390E060
:100D3000292F30E04091400150914101241735079F
:100D400030F425E02A95F1F700009F5FF1CFBA9AC1
:100D500090E0292F30E0409140015091410124174B
:100D6000350730F425E02A95F1F700009F5FF1CFB9
:100D70008170089588B38A7F88BBBA98B89820E0BC
:100D8000822F90E0409140015091410184179507D6
:100D900030F485E08A95F1F700002F5FF1CF0895D8
:100DA00087B38A7F87BB20E0822F90E0409140018B
:100DB000509141018417950730F485E08A95F1F749
:100DC00000002F5FF1CFB89A20E0822F90E0409191
:100DD0004001509141018417950730F485E08A95D0
:100DE000F1F700002F5FF1CFBA9A20E0822F90E058
:100DF00040914001509141018417950730F485E0FE
:100E00008A95F1F700002F5FF1CF0895B89A20E09E
:100E1000822F90E040914001509141018417950745
:100E200030F485E08A95F1F700002F5FF1CFBA9A90
:100E300020E0822F90E040914001509141018417C1
:100E4000950730F485E08A95F1F700002F5FF1CF28
:100E5000BA9820E0822F90E04091400150914101EA
:100E60008417950730F485E08A95F1F700002F5F2D
:100E7000F1CFB89820E0822F90E04091400150914E
:100E800041018417950730F485E08A95F1F7000059
:100E90002F5FF1CF0895CF93DF93D82FC8E08D2F28
:100EA0008078D8DEDD0FC150D1F7DF91CF911CCF14
:100EB0001F93CF93DF93182FD8E0C0E0CC0F14DF3F
:100EC000C82BD150D9F790E0292F30E04091400154
:100ED000509141012417350730F485E08A95F1F7E8
:100EE00000009F5FF1CF112311F080E001C081E08D
:100EF000B1DE20E0822F90E040914001509141010D
:100F00008417950730F485E08A95F1F700002F5F8C
:100F1000F1CF8C2FDF91CF911F91089580E287BB95
:100F200088BB80E090E082D28F3F09F081BF0091C2
:100F30006D0010916E00C80179D2E82EC8010196AB
:100F400075D2F82EC801029671D2982F80ED8E0DC1
:100F50008A3008F059C280ED8F0D8A3008F054C2F3
:100F600080ED890F8A3008F04FC200916D0010911A
:100F70006E00C8015BD290E0909368008093670098
:100F8000C801019653D290E090936A008093690063
:100F9000C80102964BD290E090936C0080936B0056
:100FA000BB9A84E1EFE5FAEE3197F1F700C000005B
:100FB0008150C1F7BB9885E090E090934101809308
:100FC000400110926300109262009EE088E10FB62B
:100FD000F894A89581BD0FBE91BD10923B0110926F
:100FE0003A01109239011092380110923701109293
:100FF000360110923D0110923401E0DA7894B898ED
:10100000C098B998C198BA98C298BD98C5981AE185
:1010100000E48BE1F82E90E8E92EA8959ED9E091A6
:1010200034018E2F90E08231910508F0B6C1FC01A9
:10103000E15FFF4F0994B89AB998BA9AC29A109290
:1010400087018091900180933F01E0923E01809161
:101050003E01882309F465C0C09820E0822F90E00B
:1010600040916200509163008417950730F4F5E0D9
:10107000FA95F1F700002F5FF1CF90913E0180913A
:101080003F01892309F0C09AC29880918701880F97
:101090008093870196B32091870191FB882780F97F
:1010A000820F8093870120E0822F90E040916200C0
:1010B000509163008417950730F445E04A95F1F7A5
:1010C00000002F5FF1CFC29A80913E0186958093F8
:1010D0003E01BDCFBA9AC2988FE797E00197F1F72A
:1010E00000C000008FB7F894C29AE7E1F1E03197B1
:1010F000F1F700C00000BA9896B392FB992790F9D7
:10110000C92FF0E0DF2F9E0141E0242720938701C3
:101110008FBF87E696E00197F1F700C00000BA9A0A
:10112000C29A81E024C18091900180933E01BA9AD5
:1011300088E02FB7F894C29890913E0190FF0AC0C2
:1011400090E29A95F1F7C29AEFEFF0E03197F1F75C
:1011500000C00AC0EFEEF0E03197F1F700C00000E8
:10116000C29AF5E3FA95F1F7000090913E01969549
:1011700090933E012FBF8150E1F60FC1109287017D
:1011800088E090918701969590938701BA9A2FB73E
:10119000F894C29840E24A95F1F7C29A55E35A95FD
:1011A000F1F70000BA9896B392FB992790F99093C3
:1011B0003E012FBFEBEDF0E03197F1F700C00000EA
:1011C00090913E01992329F0909187019068909326
:1011D00087018150B1F6A5CFBA9A9FB7F894C2980B
:1011E000F0E2FA95F1F7C29A45E34A95F1F700006B
:1011F000BA9886B382FB882780F9809387019FBFC6
:1012000090CFBA9A8FB7F894C2989091900190FFBE
:101210000AC050E25A95F1F7C29AEFEFF0E0319729
:10122000F1F700C00AC0EFEEF0E03197F1F700C02F
:101230000000C29AF5E3FA95F1F700008FBFADC048
:10124000B99AB898BA9AC298F0923F011DB98091A4
:1012500090018111C59810923E01E0913E0180916C
:101260009101E81738F5F0E0EE56FE4F80818FB916
:101270000EB980913F018DB920E0822F90E040911E
:101280006200509163008417950730F445E04A9559
:10129000F1F700002F5FF1CF769BEBCF80913E01FD
:1012A000E82FF0E09FB1E957FE4F90838F5F809366
:1012B0003E01D3CF809190018111C59A80913E016A
:1012C00056C058DD6AC080E090E06ADD80919001F0
:1012D000E2DD80933E0115C0D12C80919001D8169B
:1012E00050F4ED2DF0E0EE56FE4F8081D4DD80937A
:1012F0003E01D394F2CF80919101811187DD8091DD
:101300003E01809387010DCF80919001811102C031
:10131000D12C19C0B12C2B2D30E08091910190E09F
:101320000197A90149575E4F6A012817390734F41C
:1013300081E0BEDDF6018083B394EDCF80E0B8DDBF
:10134000F60180830EC080919101D81650F4AD2C27
:10135000B12C81E0ADDDF501E957FE4F8083D394D8
:10136000F2CF80919201811151DD809191018093A2
:101370008F0113C08FE99FE00197F1F700C00000D3
:10138000DFB6F8946091720070E04091730084E7DA
:1013900090E0D8D910927200DFBE10923401809193
:1013A0003C01882309F439CE80913D0181110DC0A3
:1013B0008091380180933B018091370180933A01FD
:1013C000809136018093390119C090913B019817A3
:1013D00010F4C09801C0C09A90913D0180913A01EB
:1013E000891710F4C19801C0C19A90913D01809174
:1013F0003901891710F4C29801C0C29A80913D0149
:101400008F5F80933D0109CE65E3C80117D08091BD
:101410006D0090916E0061E3019610D080916D0097
:1014200090916E0062E3029609D09FCDE199FECFC4
:101430009FBB8EBBE09A99278DB30895262FE19923
:10144000FECF1CBA9FBB8EBB2DBB0FB6F894E29AA1
:0C145000E19A0FBE01960895F894FFCFBA
:10145C00FF5A0A000A080335003100320020000050
:00000001FF
